{"abi":[{"type":"function","name":"bid","inputs":[],"outputs":[],"stateMutability":"nonpayable"},{"type":"function","name":"end","inputs":[],"outputs":[],"stateMutability":"nonpayable"},{"type":"function","name":"endAt","inputs":[],"outputs":[{"name":"","type":"uint256","internalType":"uint256"}],"stateMutability":"view"},{"type":"function","name":"startAt","inputs":[],"outputs":[{"name":"","type":"uint256","internalType":"uint256"}],"stateMutability":"view"}],"bytecode":{"object":"0x60806040526100114262015180610036565b600055610021426202a300610036565b60015534801561003057600080fd5b5061005d565b8082018082111561005757634e487b7160e01b600052601160045260246000fd5b92915050565b61014f8061006c6000396000f3fe608060405234801561001057600080fd5b506004361061004c5760003560e01c80631998aeef146100515780637cc3ae8c1461005b578063c744656514610076578063efbe1c1c1461007f575b600080fd5b610059610087565b005b61006460015481565b60405190815260200160405180910390f35b61006460005481565b6100596100da565b600054421015801561009a575060015442105b6100d85760405162461bcd60e51b815260206004820152600a60248201526918d85b9b9bdd08189a5960b21b60448201526064015b60405180910390fd5b565b6001544210156100d85760405162461bcd60e51b815260206004820152600a60248201526918d85b9b9bdd08195b9960b21b60448201526064016100cf56fea2646970667358221220f337e7ecba0ffd7b747402816fdb390b12943443e266d7a7c64a6d21fa9e29fa64736f6c63430008140033","linkReferences":{}},"methodIdentifiers":{"bid()":"1998aeef","end()":"efbe1c1c","endAt()":"7cc3ae8c","startAt()":"c7446565"},"id":20}