{"abi":[{"type":"constructor","inputs":[{"name":"_name","type":"string","internalType":"string"},{"name":"_symbol","type":"string","internalType":"string"},{"name":"_decimals","type":"uint8","internalType":"uint8"}],"stateMutability":"nonpayable"},{"type":"function","name":"DOMAIN_SEPARATOR","inputs":[],"outputs":[{"name":"","type":"bytes32","internalType":"bytes32"}],"stateMutability":"view"},{"type":"function","name":"allowance","inputs":[{"name":"","type":"address","internalType":"address"},{"name":"","type":"address","internalType":"address"}],"outputs":[{"name":"","type":"uint256","internalType":"uint256"}],"stateMutability":"view"},{"type":"function","name":"approve","inputs":[{"name":"spender","type":"address","internalType":"address"},{"name":"amount","type":"uint256","internalType":"uint256"}],"outputs":[{"name":"","type":"bool","internalType":"bool"}],"stateMutability":"nonpayable"},{"type":"function","name":"balanceOf","inputs":[{"name":"","type":"address","internalType":"address"}],"outputs":[{"name":"","type":"uint256","internalType":"uint256"}],"stateMutability":"view"},{"type":"function","name":"decimals","inputs":[],"outputs":[{"name":"","type":"uint8","internalType":"uint8"}],"stateMutability":"view"},{"type":"function","name":"mint","inputs":[{"name":"to","type":"address","internalType":"address"},{"name":"amount","type":"uint256","internalType":"uint256"}],"outputs":[],"stateMutability":"nonpayable"},{"type":"function","name":"name","inputs":[],"outputs":[{"name":"","type":"string","internalType":"string"}],"stateMutability":"view"},{"type":"function","name":"nonces","inputs":[{"name":"","type":"address","internalType":"address"}],"outputs":[{"name":"","type":"uint256","internalType":"uint256"}],"stateMutability":"view"},{"type":"function","name":"permit","inputs":[{"name":"owner","type":"address","internalType":"address"},{"name":"spender","type":"address","internalType":"address"},{"name":"value","type":"uint256","internalType":"uint256"},{"name":"deadline","type":"uint256","internalType":"uint256"},{"name":"v","type":"uint8","internalType":"uint8"},{"name":"r","type":"bytes32","internalType":"bytes32"},{"name":"s","type":"bytes32","internalType":"bytes32"}],"outputs":[],"stateMutability":"nonpayable"},{"type":"function","name":"symbol","inputs":[],"outputs":[{"name":"","type":"string","internalType":"string"}],"stateMutability":"view"},{"type":"function","name":"totalSupply","inputs":[],"outputs":[{"name":"","type":"uint256","internalType":"uint256"}],"stateMutability":"view"},{"type":"function","name":"transfer","inputs":[{"name":"to","type":"address","internalType":"address"},{"name":"amount","type":"uint256","internalType":"uint256"}],"outputs":[{"name":"","type":"bool","internalType":"bool"}],"stateMutability":"nonpayable"},{"type":"function","name":"transferFrom","inputs":[{"name":"from","type":"address","internalType":"address"},{"name":"to","type":"address","internalType":"address"},{"name":"amount","type":"uint256","internalType":"uint256"}],"outputs":[{"name":"","type":"bool","internalType":"bool"}],"stateMutability":"nonpayable"},{"type":"event","name":"Approval","inputs":[{"name":"owner","type":"address","indexed":true,"internalType":"address"},{"name":"spender","type":"address","indexed":true,"internalType":"address"},{"name":"amount","type":"uint256","indexed":false,"internalType":"uint256"}],"anonymous":false},{"type":"event","name":"Transfer","inputs":[{"name":"from","type":"address","indexed":true,"internalType":"address"},{"name":"to","type":"address","indexed":true,"internalType":"address"},{"name":"amount","type":"uint256","indexed":false,"internalType":"uint256"}],"anonymous":false}],"bytecode":{"object":"0x60e06040523480156200001157600080fd5b5060405162000fab38038062000fab8339810160408190526200003491620001de565b8282826000620000458482620002f4565b506001620000548382620002f4565b5060ff81166080524660a0526200006a6200007a565b60c052506200043e945050505050565b60007f8b73c3c69bb8fe3d512ecc4cf759cc79239f7b179b0ffacaa9a75d522b39400f6000604051620000ae9190620003c0565b6040805191829003822060208301939093528101919091527fc89efdaa54c0f20c7adf612882df0950f5a951637e0307cdcb4c672f298b8bc660608201524660808201523060a082015260c00160405160208183030381529060405280519060200120905090565b634e487b7160e01b600052604160045260246000fd5b600082601f8301126200013e57600080fd5b81516001600160401b03808211156200015b576200015b62000116565b604051601f8301601f19908116603f0116810190828211818310171562000186576200018662000116565b8160405283815260209250866020858801011115620001a457600080fd5b600091505b83821015620001c85785820183015181830184015290820190620001a9565b6000602085830101528094505050505092915050565b600080600060608486031215620001f457600080fd5b83516001600160401b03808211156200020c57600080fd5b6200021a878388016200012c565b945060208601519150808211156200023157600080fd5b5062000240868287016200012c565b925050604084015160ff811681146200025857600080fd5b809150509250925092565b600181811c908216806200027857607f821691505b6020821081036200029957634e487b7160e01b600052602260045260246000fd5b50919050565b601f821115620002ef576000816000526020600020601f850160051c81016020861015620002ca5750805b601f850160051c820191505b81811015620002eb57828155600101620002d6565b5050505b505050565b81516001600160401b0381111562000310576200031062000116565b620003288162000321845462000263565b846200029f565b602080601f831160018114620003605760008415620003475750858301515b600019600386901b1c1916600185901b178555620002eb565b600085815260208120601f198616915b82811015620003915788860151825594840194600190910190840162000370565b5085821015620003b05787850151600019600388901b60f8161c191681555b5050505050600190811b01905550565b6000808354620003d08162000263565b60018281168015620003eb5760018114620004015762000432565b60ff198416875282151583028701945062000432565b8760005260208060002060005b85811015620004295781548a8201529084019082016200040e565b50505082870194505b50929695505050505050565b60805160a05160c051610b3d6200046e60003960006104540152600061041f015260006101440152610b3d6000f3fe608060405234801561001057600080fd5b50600436106100cf5760003560e01c806340c10f191161008c57806395d89b411161006657806395d89b41146101d5578063a9059cbb146101dd578063d505accf146101f0578063dd62ed3e1461020357600080fd5b806340c10f191461018057806370a08231146101955780637ecebe00146101b557600080fd5b806306fdde03146100d4578063095ea7b3146100f257806318160ddd1461011557806323b872dd1461012c578063313ce5671461013f5780633644e51514610178575b600080fd5b6100dc61022e565b6040516100e99190610857565b60405180910390f35b6101056101003660046108c2565b6102bc565b60405190151581526020016100e9565b61011e60025481565b6040519081526020016100e9565b61010561013a3660046108ec565b610329565b6101667f000000000000000000000000000000000000000000000000000000000000000081565b60405160ff90911681526020016100e9565b61011e61041b565b61019361018e3660046108c2565b610476565b005b61011e6101a3366004610928565b60036020526000908152604090205481565b61011e6101c3366004610928565b60056020526000908152604090205481565b6100dc610484565b6101056101eb3660046108c2565b610491565b6101936101fe36600461094a565b610509565b61011e6102113660046109bd565b600460209081526000928352604080842090915290825290205481565b6000805461023b906109f0565b80601f0160208091040260200160405190810160405280929190818152602001828054610267906109f0565b80156102b45780601f10610289576101008083540402835291602001916102b4565b820191906000526020600020905b81548152906001019060200180831161029757829003601f168201915b505050505081565b3360008181526004602090815260408083206001600160a01b038716808552925280832085905551919290917f8c5be1e5ebec7d5bd14f71427d1e84f3dd0314c0f7b2291e5b200ac8c7c3b925906103179086815260200190565b60405180910390a35060015b92915050565b6001600160a01b03831660009081526004602090815260408083203384529091528120546000198114610385576103608382610a40565b6001600160a01b03861660009081526004602090815260408083203384529091529020555b6001600160a01b038516600090815260036020526040812080548592906103ad908490610a40565b90915550506001600160a01b03808516600081815260036020526040908190208054870190555190918716907fddf252ad1be2c89b69c2b068fc378daa952ba7f163c4a11628f55a4df523b3ef906104089087815260200190565b60405180910390a3506001949350505050565b60007f000000000000000000000000000000000000000000000000000000000000000046146104515761044c610752565b905090565b507f000000000000000000000000000000000000000000000000000000000000000090565b61048082826107ec565b5050565b6001805461023b906109f0565b336000908152600360205260408120805483919083906104b2908490610a40565b90915550506001600160a01b038316600081815260036020526040908190208054850190555133907fddf252ad1be2c89b69c2b068fc378daa952ba7f163c4a11628f55a4df523b3ef906103179086815260200190565b4284101561055e5760405162461bcd60e51b815260206004820152601760248201527f5045524d49545f444541444c494e455f4558504952454400000000000000000060448201526064015b60405180910390fd5b6000600161056a61041b565b6001600160a01b038a811660008181526005602090815260409182902080546001810190915582517f6e71edae12b1b97f4d1f60370fef10105fa2faae0126114a169c64845d6126c98184015280840194909452938d166060840152608083018c905260a083019390935260c08083018b90528151808403909101815260e08301909152805192019190912061190160f01b6101008301526101028201929092526101228101919091526101420160408051601f198184030181528282528051602091820120600084529083018083525260ff871690820152606081018590526080810184905260a0016020604051602081039080840390855afa158015610676573d6000803e3d6000fd5b5050604051601f1901519150506001600160a01b038116158015906106ac5750876001600160a01b0316816001600160a01b0316145b6106e95760405162461bcd60e51b815260206004820152600e60248201526d24a72b20a624a22fa9a4a3a722a960911b6044820152606401610555565b6001600160a01b0390811660009081526004602090815260408083208a8516808552908352928190208990555188815291928a16917f8c5be1e5ebec7d5bd14f71427d1e84f3dd0314c0f7b2291e5b200ac8c7c3b925910160405180910390a350505050505050565b60007f8b73c3c69bb8fe3d512ecc4cf759cc79239f7b179b0ffacaa9a75d522b39400f60006040516107849190610a53565b6040805191829003822060208301939093528101919091527fc89efdaa54c0f20c7adf612882df0950f5a951637e0307cdcb4c672f298b8bc660608201524660808201523060a082015260c00160405160208183030381529060405280519060200120905090565b80600260008282546107fe9190610af4565b90915550506001600160a01b0382166000818152600360209081526040808320805486019055518481527fddf252ad1be2c89b69c2b068fc378daa952ba7f163c4a11628f55a4df523b3ef910160405180910390a35050565b60006020808352835180602085015260005b8181101561088557858101830151858201604001528201610869565b506000604082860101526040601f19601f8301168501019250505092915050565b80356001600160a01b03811681146108bd57600080fd5b919050565b600080604083850312156108d557600080fd5b6108de836108a6565b946020939093013593505050565b60008060006060848603121561090157600080fd5b61090a846108a6565b9250610918602085016108a6565b9150604084013590509250925092565b60006020828403121561093a57600080fd5b610943826108a6565b9392505050565b600080600080600080600060e0888a03121561096557600080fd5b61096e886108a6565b965061097c602089016108a6565b95506040880135945060608801359350608088013560ff811681146109a057600080fd5b9699959850939692959460a0840135945060c09093013592915050565b600080604083850312156109d057600080fd5b6109d9836108a6565b91506109e7602084016108a6565b90509250929050565b600181811c90821680610a0457607f821691505b602082108103610a2457634e487b7160e01b600052602260045260246000fd5b50919050565b634e487b7160e01b600052601160045260246000fd5b8181038181111561032357610323610a2a565b60008083548160018260011c91506001831680610a7157607f831692505b60208084108203610a9057634e487b7160e01b86526022600452602486fd5b818015610aa45760018114610ab957610ae6565b60ff1986168952841515850289019650610ae6565b60008a81526020902060005b86811015610ade5781548b820152908501908301610ac5565b505084890196505b509498975050505050505050565b8082018082111561032357610323610a2a56fea264697066735822122059b0faa494dacface1eeb65ba1321ce1e04251d8cca9ee7aa614070914919d7364736f6c63430008170033","linkReferences":{}},"methodIdentifiers":{"DOMAIN_SEPARATOR()":"3644e515","allowance(address,address)":"dd62ed3e","approve(address,uint256)":"095ea7b3","balanceOf(address)":"70a08231","decimals()":"313ce567","mint(address,uint256)":"40c10f19","name()":"06fdde03","nonces(address)":"7ecebe00","permit(address,address,uint256,uint256,uint8,bytes32,bytes32)":"d505accf","symbol()":"95d89b41","totalSupply()":"18160ddd","transfer(address,uint256)":"a9059cbb","transferFrom(address,address,uint256)":"23b872dd"},"id":23}