{"abi":[{"type":"constructor","inputs":[],"stateMutability":"payable"},{"type":"receive","stateMutability":"payable"},{"type":"function","name":"owner","inputs":[],"outputs":[{"name":"","type":"address","internalType":"address payable"}],"stateMutability":"view"},{"type":"function","name":"setOwner","inputs":[{"name":"_owner","type":"address","internalType":"address"}],"outputs":[],"stateMutability":"nonpayable"},{"type":"function","name":"withdraw","inputs":[{"name":"_amount","type":"uint256","internalType":"uint256"}],"outputs":[],"stateMutability":"nonpayable"}],"bytecode":{"object":"0x6080604052600080546001600160a01b0319163317905561023a806100256000396000f3fe6080604052600436106100385760003560e01c806313af4035146100445780632e1a7d4d146100665780638da5cb5b1461008657600080fd5b3661003f57005b600080fd5b34801561005057600080fd5b5061006461005f3660046101bb565b6100c2565b005b34801561007257600080fd5b506100646100813660046101eb565b610139565b34801561009257600080fd5b506000546100a6906001600160a01b031681565b6040516001600160a01b03909116815260200160405180910390f35b6000546001600160a01b031633146101175760405162461bcd60e51b815260206004820152601360248201527231b0b63632b91034b9903737ba1037bbb732b960691b60448201526064015b60405180910390fd5b600080546001600160a01b0319166001600160a01b0392909216919091179055565b6000546001600160a01b0316331461018a5760405162461bcd60e51b81526020600482015260146024820152731031b0b63632b91034b9903737ba1037bbb732b960611b604482015260640161010e565b604051339082156108fc029083906000818181858888f193505050501580156101b7573d6000803e3d6000fd5b5050565b6000602082840312156101cd57600080fd5b81356001600160a01b03811681146101e457600080fd5b9392505050565b6000602082840312156101fd57600080fd5b503591905056fea264697066735822122087d1c1b0ca62b2367a7c53a6de0dd253ca3356b62b8bc35eba50d0161a8f1e0f64736f6c63430008170033","linkReferences":{}},"methodIdentifiers":{"owner()":"8da5cb5b","setOwner(address)":"13af4035","withdraw(uint256)":"2e1a7d4d"},"id":20}