{"abi":[{"type":"function","name":"mostSignificantBit","inputs":[{"name":"x","type":"uint256","internalType":"uint256"}],"outputs":[{"name":"msb","type":"uint256","internalType":"uint256"}],"stateMutability":"pure"}],"bytecode":{"object":"0x608060405234801561001057600080fd5b506101b7806100206000396000f3fe608060405234801561001057600080fd5b506004361061002b5760003560e01c8063e6bcbc6514610030575b600080fd5b61004361003e366004610141565b610055565b60405190815260200160405180910390f35b6000600160801b821061007557608091821c91610072908261015a565b90505b68010000000000000000821061009857604091821c91610095908261015a565b90505b64010000000082106100b757602091821c916100b4908261015a565b90505b6201000082106100d457601091821c916100d1908261015a565b90505b61010082106100f057600891821c916100ed908261015a565b90505b6010821061010b57600491821c91610108908261015a565b90505b6004821061012657600291821c91610123908261015a565b90505b6002821061013c5761013960018261015a565b90505b919050565b60006020828403121561015357600080fd5b5035919050565b8082018082111561017b57634e487b7160e01b600052601160045260246000fd5b9291505056fea2646970667358221220d2921e34cb07febb2f9d5e0ccd43c67470d0e014dc553be22726ee0aa1454f1064736f6c63430008140033","linkReferences":{}},"methodIdentifiers":{"mostSignificantBit(uint256)":"e6bcbc65"},"id":20}