{"abi":[{"type":"function","name":"deployContract","inputs":[{"name":"fileName","type":"string","internalType":"string"},{"name":"args","type":"bytes","internalType":"bytes"}],"outputs":[{"name":"","type":"address","internalType":"address"}],"stateMutability":"nonpayable"},{"type":"function","name":"deployContract","inputs":[{"name":"fileName","type":"string","internalType":"string"}],"outputs":[{"name":"","type":"address","internalType":"address"}],"stateMutability":"nonpayable"}],"bytecode":{"object":"0x6080604052600080546001600160a01b031916737109709ecfa91a80626ff3989d68f67f5b1dd12d17905534801561003657600080fd5b50610719806100466000396000f3fe608060405234801561001057600080fd5b50600436106100365760003560e01c806357ae71d41461003b578063c32723ed1461006a575b600080fd5b61004e610049366004610438565b61007d565b6040516001600160a01b03909116815260200160405180910390f35b61004e6100783660046104cf565b610212565b60408051600280825260608201909252600091829190816020015b6060815260200190600190039081610098579050509050604051806040016040528060058152602001643b3cb832b960d91b815250816000815181106100e0576100e0610504565b6020026020010181905250846040516020016100fc919061053e565b6040516020818303038152906040528160018151811061011e5761011e610504565b602090810291909101015260008054604051638916046760e01b81526001600160a01b039091169063891604679061015a908590600401610583565b6000604051808303816000875af1158015610179573d6000803e3d6000fd5b505050506040513d6000823e601f3d908101601f191682016040526101a191908101906105fd565b905060008186866040516020016101ba93929190610674565b604051602081830303815290604052905060008151602083016000f090506001600160a01b0381166102075760405162461bcd60e51b81526004016101fe9061069c565b60405180910390fd5b979650505050505050565b60408051600280825260608201909252600091829190816020015b606081526020019060019003908161022d579050509050604051806040016040528060058152602001643b3cb832b960d91b8152508160008151811061027557610275610504565b602002602001018190525082604051602001610291919061053e565b604051602081830303815290604052816001815181106102b3576102b3610504565b602090810291909101015260008054604051638916046760e01b81526001600160a01b03909116906389160467906102ef908590600401610583565b6000604051808303816000875af115801561030e573d6000803e3d6000fd5b505050506040513d6000823e601f3d908101601f1916820160405261033691908101906105fd565b905060008151602083016000f090506001600160a01b03811661036b5760405162461bcd60e51b81526004016101fe9061069c565b949350505050565b634e487b7160e01b600052604160045260246000fd5b604051601f8201601f1916810167ffffffffffffffff811182821017156103b2576103b2610373565b604052919050565b600067ffffffffffffffff8211156103d4576103d4610373565b50601f01601f191660200190565b600082601f8301126103f357600080fd5b8135610406610401826103ba565b610389565b81815284602083860101111561041b57600080fd5b816020850160208301376000918101602001919091529392505050565b60008060006040848603121561044d57600080fd5b833567ffffffffffffffff8082111561046557600080fd5b610471878388016103e2565b9450602086013591508082111561048757600080fd5b818601915086601f83011261049b57600080fd5b8135818111156104aa57600080fd5b8760208285010111156104bc57600080fd5b6020830194508093505050509250925092565b6000602082840312156104e157600080fd5b813567ffffffffffffffff8111156104f857600080fd5b61036b848285016103e2565b634e487b7160e01b600052603260045260246000fd5b60005b8381101561053557818101518382015260200161051d565b50506000910152565b6f76797065725f636f6e7472616374732f60801b81526000825161056981601085016020870161051a565b622e767960e81b6010939091019283015250601301919050565b6000602080830181845280855180835260408601915060408160051b870101925083870160005b828110156105f057878503603f19018452815180518087526105d1818989018a850161051a565b601f01601f1916959095018601945092850192908501906001016105aa565b5092979650505050505050565b60006020828403121561060f57600080fd5b815167ffffffffffffffff81111561062657600080fd5b8201601f8101841361063757600080fd5b8051610645610401826103ba565b81815285602083850101111561065a57600080fd5b61066b82602083016020860161051a565b95945050505050565b6000845161068681846020890161051a565b8201838582376000930192835250909392505050565b60208082526027908201527f56797065724465706c6f79657220636f756c64206e6f74206465706c6f7920636040820152661bdb9d1c9858dd60ca1b60608201526080019056fea2646970667358221220598a568d3b53a5b764d00881100379b37bb0dea3ec2aadddfd1bc9b3df118ca864736f6c63430008140033","linkReferences":{}},"methodIdentifiers":{"deployContract(string)":"c32723ed","deployContract(string,bytes)":"57ae71d4"},"id":21}