{"abi":[{"type":"function","name":"send","inputs":[{"name":"token","type":"address","internalType":"address"},{"name":"sender","type":"address","internalType":"address"},{"name":"receiver","type":"address","internalType":"address"},{"name":"amount","type":"uint256","internalType":"uint256"},{"name":"fee","type":"uint256","internalType":"uint256"},{"name":"deadline","type":"uint256","internalType":"uint256"},{"name":"v","type":"uint8","internalType":"uint8"},{"name":"r","type":"bytes32","internalType":"bytes32"},{"name":"s","type":"bytes32","internalType":"bytes32"}],"outputs":[],"stateMutability":"nonpayable"}],"bytecode":{"object":"0x608060405234801561001057600080fd5b50610317806100206000396000f3fe608060405234801561001057600080fd5b506004361061002b5760003560e01c80635d21d37b14610030575b600080fd5b61004361003e366004610202565b610045565b005b6001600160a01b03891663d505accf8930610060898b610291565b6040516001600160e01b031960e086901b1681526001600160a01b03938416600482015292909116602483015260448201526064810187905260ff8616608482015260a4810185905260c4810184905260e401600060405180830381600087803b1580156100cd57600080fd5b505af11580156100e1573d6000803e3d6000fd5b50506040516323b872dd60e01b81526001600160a01b038b811660048301528a81166024830152604482018a90528c1692506323b872dd91506064016020604051808303816000875af115801561013c573d6000803e3d6000fd5b505050506040513d601f19601f8201168201806040525081019061016091906102b8565b506040516323b872dd60e01b81526001600160a01b038981166004830152336024830152604482018790528a16906323b872dd906064016020604051808303816000875af11580156101b6573d6000803e3d6000fd5b505050506040513d601f19601f820116820180604052508101906101da91906102b8565b50505050505050505050565b80356001600160a01b03811681146101fd57600080fd5b919050565b60008060008060008060008060006101208a8c03121561022157600080fd5b61022a8a6101e6565b985061023860208b016101e6565b975061024660408b016101e6565b965060608a0135955060808a0135945060a08a0135935060c08a013560ff8116811461027157600080fd5b8093505060e08a013591506101008a013590509295985092959850929598565b808201808211156102b257634e487b7160e01b600052601160045260246000fd5b92915050565b6000602082840312156102ca57600080fd5b815180151581146102da57600080fd5b939250505056fea264697066735822122050c097f28b567eca8d2fa83d3bb47f14739a0a266184c6554e202e2dea43a83d64736f6c63430008140033","linkReferences":{}},"methodIdentifiers":{"send(address,address,address,uint256,uint256,uint256,uint8,bytes32,bytes32)":"5d21d37b"},"id":22}