{"abi":[{"type":"constructor","inputs":[{"name":"_initialOwner","type":"address","internalType":"address"}],"stateMutability":"nonpayable"},{"type":"function","name":"initialOwner","inputs":[],"outputs":[{"name":"","type":"address","internalType":"address"}],"stateMutability":"view"},{"type":"function","name":"owner","inputs":[],"outputs":[{"name":"","type":"address","internalType":"address"}],"stateMutability":"view"},{"type":"function","name":"renounceOwnership","inputs":[],"outputs":[],"stateMutability":"nonpayable"},{"type":"function","name":"transferOwnership","inputs":[{"name":"newOwner","type":"address","internalType":"address"}],"outputs":[],"stateMutability":"nonpayable"},{"type":"event","name":"OwnershipTransferred","inputs":[{"name":"previousOwner","type":"address","indexed":true,"internalType":"address"},{"name":"newOwner","type":"address","indexed":true,"internalType":"address"}],"anonymous":false},{"type":"error","name":"OwnableInvalidOwner","inputs":[{"name":"owner","type":"address","internalType":"address"}]},{"type":"error","name":"OwnableUnauthorizedAccount","inputs":[{"name":"account","type":"address","internalType":"address"}]}],"bytecode":{"object":"0x608060405234801561001057600080fd5b5060405161030438038061030483398101604081905261002f916100dd565b806001600160a01b03811661005e57604051631e4fbdf760e01b81526000600482015260240160405180910390fd5b6100678161008d565b50600180546001600160a01b0319166001600160a01b039290921691909117905561010d565b600080546001600160a01b038381166001600160a01b0319831681178455604051919092169283917f8be0079c531659141344cd1fd0a4f28419497f9722a3daafe3b4186f6b6457e09190a35050565b6000602082840312156100ef57600080fd5b81516001600160a01b038116811461010657600080fd5b9392505050565b6101e88061011c6000396000f3fe608060405234801561001057600080fd5b506004361061004c5760003560e01c806329ba7bb214610051578063715018a6146100805780638da5cb5b1461008a578063f2fde38b1461009b575b600080fd5b600154610064906001600160a01b031681565b6040516001600160a01b03909116815260200160405180910390f35b6100886100ae565b005b6000546001600160a01b0316610064565b6100886100a9366004610182565b6100c2565b6100b6610105565b6100c06000610132565b565b6100ca610105565b6001600160a01b0381166100f957604051631e4fbdf760e01b8152600060048201526024015b60405180910390fd5b61010281610132565b50565b6000546001600160a01b031633146100c05760405163118cdaa760e01b81523360048201526024016100f0565b600080546001600160a01b038381166001600160a01b0319831681178455604051919092169283917f8be0079c531659141344cd1fd0a4f28419497f9722a3daafe3b4186f6b6457e09190a35050565b60006020828403121561019457600080fd5b81356001600160a01b03811681146101ab57600080fd5b939250505056fea26469706673582212203c1fb6a67efdf74813248ab2f09fd1aecc8ba3adfb55420ba9d4630cae920cd264736f6c63430008140033","linkReferences":{}},"methodIdentifiers":{"initialOwner()":"29ba7bb2","owner()":"8da5cb5b","renounceOwnership()":"715018a6","transferOwnership(address)":"f2fde38b"},"id":24}