{"abi":[{"type":"function","name":"flag","inputs":[],"outputs":[{"name":"","type":"bool","internalType":"bool"}],"stateMutability":"view"},{"type":"function","name":"func_1","inputs":[],"outputs":[],"stateMutability":"nonpayable"},{"type":"function","name":"func_2","inputs":[],"outputs":[],"stateMutability":"nonpayable"},{"type":"function","name":"func_3","inputs":[],"outputs":[],"stateMutability":"nonpayable"},{"type":"function","name":"func_4","inputs":[],"outputs":[],"stateMutability":"nonpayable"},{"type":"function","name":"func_5","inputs":[],"outputs":[],"stateMutability":"nonpayable"}],"bytecode":{"object":"0x608060405234801561001057600080fd5b5060c88061001f6000396000f3fe6080604052348015600f57600080fd5b5060043610605a5760003560e01c80630916bab914605f5780633f7eb0fe14605f57806353892fa514606157806366fbc67414605f578063890eba68146072578063ac16a47414605f575b600080fd5b005b605f6000805460ff19166001179055565b600054607e9060ff1681565b604051901515815260200160405180910390f3fea2646970667358221220a97570f27ad3b48caf597497080336914feabf141c688d3cd10e1f91550aa5ee64736f6c63430008170033","linkReferences":{}},"methodIdentifiers":{"flag()":"890eba68","func_1()":"3f7eb0fe","func_2()":"ac16a474","func_3()":"0916bab9","func_4()":"66fbc674","func_5()":"53892fa5"},"id":20}